S010000064656275672F4D4F502E733139C2
S315200000000248854601F006F9FEE7C04600C00120F9
S3152000001080B584B000AF0200FB1D1A70094A0F217B
S315200000207B1812781A70FA1D7B1812781B781343E6
S31520000030DBB2044A04210B43DBB21370C046BD4633
S3152000004004B080BD1410024080B584B000AF020019
S31520000050FB1D1A700D4A0F217B1812781A70FB1D92
S315200000601B785BB2DB435BB27A18127852B213402C
S315200000705AB27B181A70054A7B181B7804210B4349
S31520000080DBB21370C046BD4604B080BD14100240DA
S3152000009080B582B000AF4020FFF7BAFF00F075FBB5
S315200000A000F073FB064AFB1D12781A704020FFF7FA
S315200000B0CBFFFB1D1B781800BD4602B080BDC04695
S315200000C01110024090B583B000AF0B4B0B4A1A605B
S315200000D00120FFF7B9FF0220FFF79AFFFC1DFFF76B
S315200000E0D7FF03002370044B054A1A60FB1D1B78BB
S315200000F01800BD4603B090BD0010024055550000C3
S315200001005555555590B583B000AF0E4B1A680D4B1B
S315200001100D490A401A600220FFF77AFF0120FFF7F7
S3152000012077FFFC1DFFF7B4FF03002370054B1A6809
S31520000130044B06490A401A60FB1D1B781800BD4671
S3152000014003B090BD00100240555500005555555539
S3152000015080B582B000AF0200FB1D1A704020FFF769
S3152000016057FF074AFB1D1B78137000F00EFB40203B
S31520000170FFF76AFF00F009FBC046BD4602B080BD0E
S315200001801510024080B582B000AF0200FB1D1A7028
S315200001900220FFF759FF0120FFF756FFFB1D1B78B2
S315200001A01800FFF7D5FFC046BD4602B080BD80B51A
S315200001B082B000AF0200FB1D1A700120FFF728FF56
S315200001C00220FFF741FFFB1D1B781800FFF7C0FF39
S315200001D0C046BD4602B080BD80B582B000AF0200E9
S315200001E0FB1D1A70C046FFF76DFF03001A0080231F
S315200001F01340802BF7D0FB1D1B781800FFF7C2FF9A
S31520000200022000F0A7FAC046BD4602B080BD80B5E8
S3152000021082B000AF0200FB1D1A70C046FFF752FFE6
S3152000022003001A0080231340802BF7D0FB1D1B7878
S315200002301800FFF7BCFF022000F08CFAC046BD462E
S3152000024002B080BD80B500AF3820FFF7C5FF0C2077
S31520000250FFF7C2FF0120FFF7BFFF0620FFF7BCFF15
S31520000260C046BD4680BD80B500AF0120FFF7B4FF74
S31520000270C046BD4680BD80B584B000AF7860396089
S315200002807B68013BFB603B68022B02D1FB68403355
S31520000290FB60FB685BB28022524213435BB2DBB247
S315200002A01800FFF76FFFC046BD4604B080BD90B56D
S315200002B089B000AFB9607A600F243B19021C1A700E
S315200002C0164B1B68FB61164B1B889BB2BB61154BFB
S315200002D01B687B61114B144A1A60114B00221A804D
S315200002E0104B012252421A607A68BB68110018002E
S315200002F0FFF7C1FF3B191B781800FFF788FF074B54
S31520000300FA691A60064BBA6992B21A80054B7A6965
S315200003101A60C046BD4609B090BDC04600100240D6
S3152000032004100240081002405555555580B584B03A
S3152000033000AF78600023FB601DE07B681A68FB68CD
S3152000034004335B00D31804331B781A007B68DB6800
S31520000350D0187B681A68FB6804335B00D318053312
S315200003601B781A007B681B69D318190000F0A9FFB7
S31520000370FB680133FB607B681B681B68FA689A423E
S31520000380DBDBC046C046BD4604B080BD80B584B028
S3152000039000AF78600023FB601DE07B681A68FB686D
S315200003A004335B00D31804331B781A007B68DB68A0
S315200003B0D0187B681A68FB6804335B00D3180533B2
S315200003C01B781A007B681B69D318190000F07CFF84
S315200003D0FB680133FB607B681B681B68FA689A42DE
S315200003E0DBDBC046C046BD4604B080BD80B582B0CA
S315200003F000AF78607B681800FFF7C8FF7B68DA6873
S315200004007B685B68D2187B68DA607B681A697B68D0
S315200004109B68D2187B681A617B68DB687F2B04DDBA
S315200004207B685B685A427B685A607B68DB68002B76
S3152000043004DC7B685B685A427B685A607B681B6970
S31520000440402B04DD7B689B685A427B689A607B68F8
S315200004501B69002B04DC7B689B685A427B689A6088
S315200004607B681800FFF762FFC046BD4602B080BD1C
S3152000047080B582B000AF78607B681800FFF786FFF2
S315200004807B681A697B689B68D2187B681A617B68CF
S315200004901B69402B05DD7B6800229A607B683C2225
S315200004A01A617B681B69002B05DC7B6800229A6039
S315200004B07B6804221A617B681800FFF737FFC04665
S315200004C0BD4602B080BD80B584B000AFF860B9608B
S315200004D07A60FB68BA685A60FB687A689A60C04698
S315200004E0BD4604B080BD90B58FB000AFF860B9604E
S315200004F07A6014217B18134A1A607B1800225A60EE
S315200005007B1800229A607B18BA68DA607B187A68B2
S315200005101A617B180C4A5A617B180C4A9A617B181F
S315200005200B4ADA617B180B4A1A62FB687A1813CADF
S3152000053013C313CA13C313CA13C3F868BD460FB037
S3152000054090BDC046001300202D0300208D030020FF
S31520000550ED030020C704002090B58FB000AFF860EF
S31520000560B9607A6014217B18124A1A607B1800221F
S315200005705A607B1800229A607B18BA68DA607B186A
S315200005807A681A617B180C4A5A617B180B4A9A6161
S315200005907B180B4ADA617B180A4A1A62FB687A18BA
S315200005A013CA13C313CA13C313CA13C3F868BD46A9
S315200005B00FB090BD481300202D0300208D0300208E
S315200005C071040020C704002080B500AF134B002221
S315200005D01A60134B1A68124B01218A431A60114B79
S315200005E0114A1A60114B1A68104B8021C9030A431D
S315200005F01A600F4B0F4A1A600F4B104A1A60104BA5
S315200006001A680F4B01210A431A60054B1A68044BDE
S3152000061001210A431A60C046BD4680BDDC12002077
S315200006200010004018C10120C50C002004E100E0A4
S3152000063028100040CF2000002C100040E7030000C7
S315200006400C10004080B500AF094B1968084B5A685A
S3152000065013009B009B185B00C918054B9A68130072
S315200006601B019B1A9B00CB181800BD4680BDC046B7
S31520000670DC12002080B500AF044B1A68034B012121
S315200006808A431A60C046BD4680BDC0460010004061
S3152000069080B500AF044B1A68034B01210A431A6048
S315200006A0C046BD4680BDC0460010004080B500AFA4
S315200006B0074B084A1A60084B084A1A60084B002262
S315200006C01A80084B012252421A60C046BD4680BDA0
S315200006D020ED00E000C00120001002405555555580
S315200006E0041002400810024080B582B000AF02001C
S315200006F0FB1D1A70C0460B4B1B889BB21A00802329
S315200007001340F8D0074AFB1D1B789BB29380FB1D34
S315200007101B780A2B02D10D20FFF7E6FFC046BD4607
S3152000072002B080BD0010014080B582B000AF786075
S3152000073006E07B685A1C7A601B781800FFF7D4FF06
S315200007407B681B78002BF4D1C046C046BD4602B05C
S3152000075080BDC04680B584B000AF78600023FB60C2
S315200007600AE000F012F800F010F800F00EF800F0A1
S315200007700CF8FB680133FB60FB687A689A42F0D874
S31520000780C046C046BD4604B080BD80B500AF00F06F
S3152000079005F800F003F8C046BD4680BD80B500AF21
S315200007A00C4B00221A600C4B15221A600B4B0022B0
S315200007B01A60084B05221A60C046064B1A68802329
S315200007C05B021340F9D0034B00221A60C046BD4697
S315200007D080BDC04610E000E014E000E018E000E034
S315200007E080B58CB000AFF860B9607A603B603A683B
S315200007F07B68D31AD9175A184A40B968FB68CB1AAE
S31520000800D9175B184B409A4204DD2F23FB1801228F
S315200008101A7003E02F23FB1800221A702F23FB18CF
S315200008201B78002B0BD0FB68BB617B68FB60BB6928
S315200008307B60BB68BB613B68BB60BB693B60FA6899
S31520000840BB689A420BDDFB68BB61BB68FB60BB697A
S31520000850BB607B68BB613B687B60BB693B60BA68F9
S31520000860FB68D31A7B613A687B68D31ADA179B1820
S3152000087053403B610023BB627B687B627A683B689E
S315200008809A4202DA01233B6202E001235B423B6289
S31520000890FB68FB6125E02F23FB181B78002B06D075
S315200008A0FA697B6A1100180000F00BFD05E07A6AF0
S315200008B0FB691100180000F004FDBA6A3B69D318E1
S315200008C0BB62BB6A5B007A699A4207DC7A6A3B6A3A
S315200008D0D3187B62BA6A7B69D31ABB62FB69013380
S315200008E0FB61FA69BB689A42D5DBC046C046BD4665
S315200008F00CB080BD80B586B000AF3B1D18603B1D97
S315200009001B787B613B1D9B783B613B1D5B78FB60C5
S315200009103B1DDB78BB60FB68402B0ADCBB68402BA9
S3152000092007DCBB68FA6839697869FFF759FF012344
S3152000093000E000231800BD4606B080BDF0B587B0A4
S3152000094000AF3B1D18600C243B193A1D12881A80F3
S3152000095017203B183A1D92781A7016257B193A1DD6
S31520000960D2781A703B191A7814217B181A703B1901
S315200009705A787B185A703B191A783B181B78D3186B
S31520000980DAB21026BB191A703B195A78BB195A705D
S3152000099008203B180D007A1812881A803B1802216D
S315200009A0BA1912885A523B181868FFF7A3FF3B1949
S315200009B01A781723FB181B78D318DAB27B191A700A
S315200009C03B195A787B195A7029007B191A78BB195A
S315200009D01A703B195A7816257B191B78D318DAB268
S315200009E0BB195A7008203B180D007A1812881A80F5
S315200009F03B180221BA1912885A523B181868FFF779
S31520000A0079FF3B191A781723FB181B78D318DAB20B
S31520000A1029007B181A703B195A7816257B191B78E2
S31520000A20D318DAB27B185A703B191A78BB191A7088
S31520000A303B195A787B191B78D318DAB2BB195A702E
S31520000A4008203B180D007A1812881A803B180221BC
S31520000A50BA1912885A523B181868FFF74BFF3B19F0
S31520000A601A787B191A707B191B781800BD4607B0B7
S31520000A70F0BDF0B587B000AF3B00186059603B0071
S31520000A801A7810217B181A703B005A787B185A70F6
S31520000A903B005B687B6124E07B691A780C203B185D
S31520000AA01A707B695A783B185A7008257B191026CC
S31520000AB0BA1912881A807B19022104003A18128862
S31520000AC05A527B191868FFF715FF20003B181A7831
S31520000AD0BB191A703B185A78BB195A707B695B6828
S31520000AE07B617B69002BD7D101231800BD4607B057
S31520000AF0F0BD000080B582B000AF78607B68042B23
S31520000B001BD07B68042B1CDC7B68032B11D07B68F5
S31520000B10032B16DC7B68012B03D07B68022B04D0C9
S31520000B200FE00C4B10221A700FE00A4B20221A708D
S31520000B300BE0084B40221A7007E0064B80221A7001
S31520000B4003E0044B00221A70C046C046BD4602B0E0
S31520000B5080BDC046150C024080B582B000AF144B54
S31520000B60144A1A60144AFB1D12781A70FB1D1B7852
S31520000B700822134001D0042315E0FB1D1B78042214
S31520000B80134001D003230EE0FB1D1B7802221340E5
S31520000B9001D0022307E0FB1D1B780122134001D060
S31520000BA0012300E000231800BD4602B080BDC046E8
S31520000BB0000C024055550055110C024080B500AF7F
S31520000BC0094BAA2212041A60084B00221A80084BED
S31520000BD0012252421A60074B18221A60064B074A16
S31520000BE01A60C046BD4680BD0C0C0240040C024073
S31520000BF0080C024030380240000C02405555005582
S31520000C0090B589B000AF1A4B1B68BB61FFF7D6FFC2
S31520000C103B1D184A13CA13C312681A600123FB61CD
S31520000C201AE0FB691800FFF765FFFFF795FF030041
S31520000C307B617B69002B0CD00F4B1800FFF75AFF06
S31520000C40FB69013B9A007B69013BD3183A1DD35CB3
S31520000C5009E0FB690133FB61FB69042BE1DD044BF1
S31520000C60BA691A60FF231800BD4609B090BDC04678
S31520000C70000C0240941300200046C323B0B586B072
S31520000C8000AF0200FB1D1A7008203B180B4A32CA1F
S31520000C9032C312681A60FB1D1B780E2B06D8FB1D6B
S31520000CA01B7807493A18D35C0B7002E0044B0022EC
S31520000CB01A70C046BD4606B0B0BDC046A41300207B
S31520000CC0140C024080B500AF224B1A68214B01213B
S31520000CD08A431A60204B1B685A1C1F4B1A601E4BF6
S31520000CE01B68092B07DD1C4B5B685A1C1A4B5A6084
S31520000CF0194B00221A60184B5B68052B04DD164B36
S31520000D009B685A1C144B9A60FFF7ADFA00F0C0F8A6
S31520000D1001210A20FFF7AFFA0F4B9B68DBB2303375
S31520000D20DBB21800FFF773FA3A20FFF770FA0A4B86
S31520000D305B68DBB23033DBB21800FFF768FA064B8C
S31520000D401B68DBB23033DBB21800FFF760FAC0460F
S31520000D50BD4680BD10100040EC12002084B0B0B516
S31520000D6082B000AF18257C1920606160A260E36024
S31520000D7029007B18DA6824235B18DB19DB68D31A71
S31520000D80DA179B1853407B607B181A6924235B185B
S31520000D90DB191B69D31ADA179B1853403B607B6813
S31520000DA0042B04DC3B68082B01DC012300E0002334
S31520000DB01800BD4602B0B0BC08BC04B0184780B5C8
S31520000DC082B000AF2E4B7B60FFF74DFA00F076FA2B
S31520000DD001210120FFF74FFA07E07B681B781800F6
S31520000DE0FFF715FA7B6801337B607B681B78002B45
S31520000DF0F3D102210120FFF73EFA0AE0214B1B68BE
S31520000E001B781800FFF703FA1E4B1B685A1C1D4B54
S31520000E101A601C4B1B681B78002BEFD1FFF72AFCAE
S31520000E20FA235B001800FFF795FCFFF71CFA012157
S31520000E300120FFF720FA144B7B6007E07B681B78C4
S31520000E401800FFF7E4F97B6801337B607B681B7829
S31520000E50002BF3D1C046FFF7D3FE0300FF2BFAD0B9
S31520000E600A4B00221A60094B00225A60074B0022C7
S31520000E709A6000F0CFF9C046BD4602B080BDC0469C
S31520000E80B4130020FC120020CC130020EC1200200A
S31520000E9080B582B000AF1C4B7B601C4B3B600121B0
S31520000EA00120FFF7E8F907E07B681B781800FFF7B9
S31520000EB0AEF97B6801337B607B681B78002BF3D10E
S31520000EC0134B1B783033DBB21800FFF7A0F9022151
S31520000ED00120FFF7D0F907E03B681B781800FFF7E1
S31520000EE096F93B6801333B603B681B78002BF3D1B6
S31520000EF0084B1B783033DBB21800FFF788F9C04661
S31520000F00BD4602B080BDC046E8130020F013002085
S31520000F10F8120020F912002080B500AFFFF792F9F1
S31520000F20084B094A1A60094B00221A80084B0122F5
S31520000F3052421A6000F0BFF900F0C0F9C046BD4623
S31520000F4080BDC0460010024055555555041002403C
S31520000F500810024084B0B0B598B00EAF38243C19C2
S31520000F6020606160A260E3602723FB18FF221A70CD
S31520000F703B00012201211800FFF7B5FA3B001B6A4E
S31520000F803800012204219847FFF782FFFFF71CFB58
S31520000F9038243B19DA693B191800904724231B197A
S31520000FA0DB19DB695C22BA18100098473B00DB6925
S31520000FB03A001000984727257C19FFF721FE0300E9
S31520000FC023707B191B78092B08DC002B58DD092B95
S31520000FD056D89A00884BD3181B689F46FF2B46D0BD
S31520000FE04EE0242338229B18DB191B6A0322524227
S31520000FF05C2178180021984742E0242338229B1848
S31520001000DB191B6A5C22B81803220021984737E0B7
S3152000101038217B181C6A03235A427B1800211800AA
S31520001020A0472DE03822BB181C6ABB1803220021DA
S315200010301800A04724E038217B1824225218D11901
S3152000104014226A4431C931C231C931C231C931C2CF
S315200010506A4611001A00103231CA31C111CA11C1B3
S31520001060186859689A68DB68FFF774FF08E0382229
S31520001070BB181C6ABB18002200211800A047C046D6
S315200010803823FB18390014226A4431C931C231C9C8
S3152000109031C231C931C26A4611001A00103231CA32
S315200010A031C111CA11C1186859689A68DB68FFF7FF
S315200010B055FE031E04D03B005B685A423B005A6033
S315200010C0242338229B18DC193A0014236B4423CAA4
S315200010D023C323CA23C323CA23C36B461A00230070
S315200010E0103323CB23C203CB03C220686168A268D6
S315200010F0E368FFF733FE031E04D03B005B685A42C9
S315200011003B005A603B00DB687F2B22DD3B4B1B7884
S315200011100133DAB2394B1A70FFF7BAFE38217B1841
S3152000112024225218D11914226A4431C931C231C934
S3152000113031C231C931C26A4611001A00103231CA91
S3152000114031C111CA11C1186859689A68DB68FFF75E
S3152000115001FF3B00DB68002B22DC294B1B78013387
S31520001160DAB2274B1A70FFF793FE38217B18242218
S315200011705218D11914226A4431C931C231C931C237
S3152000118031C931C26A4611001A00103231CA31C142
S3152000119011CA11C1186859689A68DB68FFF7DAFE28
S315200011A0184B1968174B5A6813009B009B185B0055
S315200011B0CB18092B00DCEBE6104B1A78104B1B786A
S315200011C09A4205D9104B114A1A60FFF7F8FD0BE039
S315200011D00B4B1A78094B1B789A4200D8D8E60A4B53
S315200011E00B4A1A60FFF7EBFDC046BD460AB0B0BCFD
S315200011F008BC04B01847C04610140020F81200207E
S31520001200F9120020EC120020FC120020F813002016
S3152000121004140020B0B5AAB00EAFFFF77DFE6F23F1
S31520001220FB18FF221A7048243B19012201211800BD
S31520001230FFF759F92200BB181B6AB81801220421AE
S31520001240984724243B19202264211800FFF784F9AB
S315200012503B0020221C211800FFF77EF93C193A009A
S3152000126014236B4423CA23C323CA23C323CA23C3F9
S315200012706B461A002300103323CB23C203CB03C2B1
S3152000128020686168A268E368FFF764FE01231800FE
S31520001290BD461CB0B0BDC04680B582B000AF7860F8
S315200012A07B68002B02DA7B685B4200E07B681800D3
S315200012B0BD4602B080BDF0DF7047C046F1DF704703
S315200012C0C046F2DF7047C046F3DF7047C04662B6BD
S315200012D07047C04672B67047C04600000000000046
S315200012E000000000000000000000000000000000D8
S315200012F000000000000000000000000000000000C8
S315200013000C000000040000000400000000010002A0
S31520001310010101020103020002010202020303018C
S315200013200302000000000000000000000000000092
S315200013300000000000000000000000000000000087
S3152000134000000000000000001B0000000500000057
S315200013500900000000000100020003000400000153
S31520001360000200030004000500060007000801082B
S3152000137002080308040804070406040504040403F9
S31520001380040204010203020402050000000000001A
S31520001390050000000102030A0405060B0708090CD4
S315200013A00E000F0D3F065B4F666D7D077F6F777CC6
S315200013B0395E7E2154686520657069632077696E81
S315200013C06E65722069733A200000000050726573C2
S315200013D07320616E79206B657920746F2072657336
S315200013E0746172740000000050313A200000000041
S315200013F050323A2000000000506C6179657220312D
S3152000140000000000506C61796572203200000000F7
S3152000141080100020E20F00208010002010100020F5
S31520001420801000208010002036100020FA0F0020A7
S30D2000143080100020241000208A
S70520000000DA
