S010000064656275672F4D4F502E733139C2
S315200000000248854600F0ECFFFEE7C04600C001200E
S3152000001080B584B000AF0200FB1D1A70094A0F217B
S315200000207B1812781A70FA1D7B1812781B781343E6
S31520000030DBB2044A04210B43DBB21370C046BD4633
S3152000004004B080BD1410024080B584B000AF020019
S31520000050FB1D1A700D4A0F217B1812781A70FB1D92
S315200000601B785BB2DB435BB27A18127852B213402C
S315200000705AB27B181A70054A7B181B7804210B4349
S31520000080DBB21370C046BD4604B080BD14100240DA
S3152000009080B582B000AF4020FFF7BAFF00F0E5FA46
S315200000A000F0E3FA064AFB1D12781A704020FFF78B
S315200000B0CBFFFB1D1B781800BD4602B080BDC04695
S315200000C01110024090B583B000AF0B4B0B4A1A605B
S315200000D00120FFF7B9FF0220FFF79AFFFC1DFFF76B
S315200000E0D7FF03002370044B054A1A60FB1D1B78BB
S315200000F01800BD4603B090BD0010024055550000C3
S315200001005555555590B583B000AF0E4B1A680D4B1B
S315200001100D490A401A600220FFF77AFF0120FFF7F7
S3152000012077FFFC1DFFF7B4FF03002370054B1A6809
S31520000130044B06490A401A60FB1D1B781800BD4671
S3152000014003B090BD00100240555500005555555539
S3152000015080B582B000AF0200FB1D1A704020FFF769
S3152000016057FF074AFB1D1B78137000F07EFA4020CC
S31520000170FFF76AFF00F079FAC046BD4602B080BD9F
S315200001801510024080B582B000AF0200FB1D1A7028
S315200001900220FFF759FF0120FFF756FFFB1D1B78B2
S315200001A01800FFF7D5FFC046BD4602B080BD80B51A
S315200001B082B000AF0200FB1D1A700120FFF728FF56
S315200001C00220FFF741FFFB1D1B781800FFF7C0FF39
S315200001D0C046BD4602B080BD80B582B000AF0200E9
S315200001E0FB1D1A70C046FFF76DFF03001A0080231F
S315200001F01340802BF7D0FB1D1B781800FFF7C2FF9A
S31520000200022000F017FAC046BD4602B080BD80B578
S3152000021082B000AF0200FB1D1A70C046FFF752FFE6
S3152000022003001A0080231340802BF7D0FB1D1B7878
S315200002301800FFF7BCFF022000F0FCF9C046BD46BF
S3152000024002B080BD80B500AF3820FFF7C5FF0C2077
S31520000250FFF7C2FF0120FFF7BFFF0620FFF7BCFF15
S31520000260C046BD4680BD80B500AF0120FFF7B4FF74
S31520000270C046BD4680BD80B584B000AF7860396089
S315200002807B68013BFB603B68022B02D1FB68403355
S31520000290FB60FB685BB28022524213435BB2DBB247
S315200002A01800FFF76FFFC046BD4604B080BD90B56D
S315200002B089B000AFB9607A600F243B19021C1A700E
S315200002C0164B1B68FB61164B1B889BB2BB61154BFB
S315200002D01B687B61114B144A1A60114B00221A804D
S315200002E0104B012252421A607A68BB68110018002E
S315200002F0FFF7C1FF3B191B781800FFF788FF074B54
S31520000300FA691A60064BBA6992B21A80054B7A6965
S315200003101A60C046BD4609B090BDC04600100240D6
S3152000032004100240081002405555555580B584B03A
S3152000033000AF78600023FB601DE07B681A68FB68CD
S3152000034004335B00D31804331B781A007B68DB6800
S31520000350D0187B681A68FB6804335B00D318053312
S315200003601B781A007B681B69D318190000F08DFED4
S31520000370FB680133FB607B681B681B68FA689A423E
S31520000380DBDBC046C046BD4604B080BD80B584B028
S3152000039000AF78600023FB601DE07B681A68FB686D
S315200003A004335B00D31804331B781A007B68DB68A0
S315200003B0D0187B681A68FB6804335B00D3180533B2
S315200003C01B781A007B681B69D318190000F060FEA1
S315200003D0FB680133FB607B681B681B68FA689A42DE
S315200003E0DBDBC046C046BD4604B080BD80B582B0CA
S315200003F000AF78607B681800FFF7C8FF7B68DA6873
S315200004007B685B68D2187B68DA607B681A697B68D0
S315200004109B68D2187B681A617B68DB687F2B04DDBA
S315200004207B685B685A427B685A607B68DB68002B76
S3152000043004DC7B685B685A427B685A607B681B6970
S31520000440402B04DD7B689B685A427B689A607B68F8
S315200004501B69002B04DC7B689B685A427B689A6088
S315200004607B681800FFF762FFC046BD4602B080BD1C
S3152000047080B582B000AF78607B681800FFF786FFF2
S315200004807B681A697B689B68D2187B681A617B68CF
S315200004901B69402B05DD7B6800229A607B683C2225
S315200004A01A617B681B69002B05DC7B6800229A6039
S315200004B07B6804221A617B681800FFF737FFC04665
S315200004C0BD4602B080BD80B584B000AFF860B9608B
S315200004D07A60FB68BA685A60FB687A689A60C04698
S315200004E0BD4604B080BD90B58FB000AFF860B9604E
S315200004F07A6014217B18134A1A607B1800225A60EE
S315200005007B1800229A607B18BA68DA607B187A68B2
S315200005101A617B180C4A5A617B180C4A9A617B181F
S315200005200B4ADA617B180B4A1A62FB687A1813CADF
S3152000053013C313CA13C313CA13C3F868BD460FB037
S3152000054090BDC046D41200202D0300208D0300202C
S31520000550ED030020C704002090B58FB000AFF860EF
S31520000560B9607A6014217B18124A1A607B1800221F
S315200005705A607B1800229A607B18BA68DA607B186A
S315200005807A681A617B180C4A5A617B180B4A9A6161
S315200005907B180B4ADA617B180A4A1A62FB687A18BA
S315200005A013CA13C313CA13C313CA13C3F868BD46A9
S315200005B00FB090BD1C1300202D0300208D030020BA
S315200005C071040020C704002080B582B000AF02006D
S315200005D0FB1D1A70C0460B4B1B889BB21A0080234A
S315200005E01340F8D0074AFB1D1B789BB29380FB1D56
S315200005F01B780A2B02D10D20FFF7E6FFC046BD4629
S3152000060002B080BD0010014080B582B000AF786096
S3152000061006E07B685A1C7A601B781800FFF7D4FF27
S315200006207B681B78002BF4D1C046C046BD4602B07D
S3152000063080BDC04680B584B000AF78600023FB60E3
S315200006400AE000F012F800F010F800F00EF800F0C2
S315200006500CF8FB680133FB60FB687A689A42F0D895
S31520000660C046C046BD4604B080BD80B500AF00F090
S3152000067005F800F003F8C046BD4680BD80B500AF42
S315200006800C4B00221A600C4B15221A600B4B0022D1
S315200006901A60084B05221A60C046064B1A6880234A
S315200006A05B021340F9D0034B00221A60C046BD46B8
S315200006B080BDC04610E000E014E000E018E000E055
S315200006C080B58CB000AFF860B9607A603B603A685C
S315200006D07B68D31AD9175A184A40B968FB68CB1ACF
S315200006E0D9175B184B409A4204DD2F23FB180122B1
S315200006F01A7003E02F23FB1800221A702F23FB18F1
S315200007001B78002B0BD0FB68BB617B68FB60BB6949
S315200007107B60BB68BB613B68BB60BB693B60FA68BA
S31520000720BB689A420BDDFB68BB61BB68FB60BB699B
S31520000730BB607B68BB613B687B60BB693B60BA681A
S31520000740FB68D31A7B613A687B68D31ADA179B1841
S3152000075053403B610023BB627B687B627A683B68BF
S315200007609A4202DA01233B6202E001235B423B62AA
S31520000770FB68FB6125E02F23FB181B78002B06D096
S31520000780FA697B6A1100180000F07FFC05E07A6A9E
S31520000790FB691100180000F078FCBA6A3B69D3188F
S315200007A0BB62BB6A5B007A699A4207DC7A6A3B6A5B
S315200007B0D3187B62BA6A7B69D31ABB62FB690133A1
S315200007C0FB61FA69BB689A42D5DBC046C046BD4686
S315200007D00CB080BD80B586B000AF3B1D18603B1DB8
S315200007E01B787B613B1D9B783B613B1D5B78FB60E7
S315200007F03B1DDB78BB60FB68402B0ADCBB68402BCB
S3152000080007DCBB68FA6839697869FFF759FF012365
S3152000081000E000231800BD4606B080BDF0B587B0C5
S3152000082000AF3B1D18600C243B193A1D12881A8014
S3152000083017203B183A1D92781A7016257B193A1DF7
S31520000840D2781A703B191A7814217B181A703B1922
S315200008505A787B185A703B191A783B181B78D3188C
S31520000860DAB21026BB191A703B195A78BB195A707E
S3152000087008203B180D007A1812881A803B1802218E
S31520000880BA1912885A523B181868FFF7A3FF3B196A
S315200008901A781723FB181B78D318DAB27B191A702B
S315200008A03B195A787B195A7029007B191A78BB197B
S315200008B01A703B195A7816257B191B78D318DAB289
S315200008C0BB195A7008203B180D007A1812881A8016
S315200008D03B180221BA1912885A523B181868FFF79A
S315200008E079FF3B191A781723FB181B78D318DAB22D
S315200008F029007B181A703B195A7816257B191B7804
S31520000900D318DAB27B185A703B191A78BB191A70A9
S315200009103B195A787B191B78D318DAB2BB195A704F
S3152000092008203B180D007A1812881A803B180221DD
S31520000930BA1912885A523B181868FFF74BFF3B1911
S315200009401A787B191A707B191B781800BD4607B0D8
S31520000950F0BDF0B587B000AF3B00186059603B0092
S315200009601A7810217B181A703B005A787B185A7017
S315200009703B005B687B6124E07B691A780C203B187E
S315200009801A707B695A783B185A7008257B191026ED
S31520000990BA1912881A807B19022104003A18128883
S315200009A05A527B191868FFF715FF20003B181A7852
S315200009B0BB191A703B185A78BB195A707B695B6849
S315200009C07B617B69002BD7D101231800BD4607B078
S315200009D0F0BD000080B582B000AF78607B68042B44
S315200009E01BD07B68042B1CDC7B68032B11D07B6817
S315200009F0032B16DC7B68012B03D07B68022B04D0EB
S31520000A000FE00C4B10221A700FE00A4B20221A70AE
S31520000A100BE0084B40221A7007E0064B80221A7022
S31520000A2003E0044B00221A70C046C046BD4602B001
S31520000A3080BDC046150C024080B582B000AF144B75
S31520000A40144A1A60144AFB1D12781A70FB1D1B7873
S31520000A500822134001D0042315E0FB1D1B78042235
S31520000A60134001D003230EE0FB1D1B780222134006
S31520000A7001D0022307E0FB1D1B780122134001D081
S31520000A80012300E000231800BD4602B080BDC04609
S31520000A90000C024055550055110C024080B500AFA0
S31520000AA0094BAA2212041A60084B00221A80084B0E
S31520000AB0012252421A60074B18221A60064B074A37
S31520000AC01A60C046BD4680BD0C0C0240040C024094
S31520000AD0080C024030380240000C024055550055A3
S31520000AE090B589B000AF1A4B1B68BB61FFF7D6FFE4
S31520000AF03B1D184A13CA13C312681A600123FB61EF
S31520000B001AE0FB691800FFF765FFFFF795FF030062
S31520000B107B617B69002B0CD00F4B1800FFF75AFF27
S31520000B20FB69013B9A007B69013BD3183A1DD35CD4
S31520000B3009E0FB690133FB61FB69042BE1DD044B12
S31520000B40BA691A60FF231800BD4609B090BDC04699
S31520000B50000C0240681300200046C323B0B586B0BF
S31520000B6000AF0200FB1D1A7008203B180B4A32CA40
S31520000B7032C312681A60FB1D1B780E2B06D8FB1D8C
S31520000B801B7807493A18D35C0B7002E0044B00220D
S31520000B901A70C046BD4606B0B0BDC04678130020C8
S31520000BA0140C024084B0B0B582B000AF18257C1971
S31520000BB020606160A260E36029007B18DA68242344
S31520000BC05B18DB19DB68D31ADA179B1853407B6056
S31520000BD07B181A6924235B18DB191B69D31ADA17C9
S31520000BE09B1853403B607B68042B04DC3B68082B36
S31520000BF001DC012300E000231800BD4602B0B0BC92
S31520000C0008BC04B0184780B582B000AF184B7B6093
S31520000C10FFF729FB00F036FA01210120FFF72BFB15
S31520000C2007E07B681B781800FFF7F1FA7B68013331
S31520000C307B607B681B78002BF3D102210120FFF714
S31520000C401AFB0AE00B4B1B681B781800FFF7DFFA2C
S31520000C50084B1B685A1C074B1A60064B1B681B78EF
S31520000C60002BEFD1C046C046BD4602B080BDC0466F
S31520000C7088130020BC12002080B582B000AF1C4B28
S31520000C807B601C4B3B6001210120FFF7F4FA07E053
S31520000C907B681B781800FFF7BAFA7B6801337B6004
S31520000CA07B681B78002BF3D1134B1B783033DBB2D8
S31520000CB01800FFF7ACFA01210820FFF7DCFA07E05D
S31520000CC03B681B781800FFF7A2FA3B6801333B60AC
S31520000CD03B681B78002BF3D1084B1B783033DBB2F3
S31520000CE01800FFF794FAC046BD4602B080BDC04644
S31520000CF0A0130020A8130020B8120020B91200204B
S31520000D0080B500AFFFF79EFA084B094A1A60094BD7
S31520000D1000221A80084B012252421A6000F0AFF9D5
S31520000D2000F0B0F9C046BD4680BDC0460010024066
S31520000D3055555555041002400810024084B0B0B5F0
S31520000D4098B00EAF38243C1920606160A260E36041
S31520000D502723FB18FF221A703B00012201211800CD
S31520000D60FFF7C1FB3B001B6A38000122042198478C
S31520000D70FFF782FF38243B19DA693B1918009047A0
S31520000D8024231B19DB19DB695C22BA18100098474B
S31520000D903B00DB693A001000984727257C19FFF7AE
S31520000DA09FFE030023707B191B78092B08DC002B80
S31520000DB058DD092B56D89A00824BD3181B689F46BC
S31520000DC0FF2B46D04EE0242338229B18DB191B6AC2
S31520000DD0032252425C2178180021984742E02423BE
S31520000DE038229B18DB191B6A5C22B81803220021C3
S31520000DF0984737E038217B181C6A03235A427B1810
S31520000E0000211800A0472DE03822BB181C6ABB1809
S31520000E10032200211800A04724E038217B18242231
S31520000E205218D11914226A4431C931C231C931C28A
S31520000E3031C931C26A4611001A00103231CA31C195
S31520000E4011CA11C1186859689A68DB68FFF776FFDE
S31520000E5008E03822BB181C6ABB18002200211800A3
S31520000E60A047C0463823FB18390014226A4431C9EA
S31520000E7031C231C931C231C931C26A4611001A00A4
S31520000E80103231CA31C111CA11C1186859689A681D
S31520000E90DB68FFF787FE031E04D03B005B685A42DF
S31520000EA03B005A60242338229B18DC193A0014236D
S31520000EB06B4423CA23C323CA23C323CA23C36B4633
S31520000EC01A002300103323CB23C203CB03C220688E
S31520000ED06168A268E368FFF765FE031E04D03B0045
S31520000EE05B685A423B005A603B00DB687F2B22DD61
S31520000EF0354B1B780133DAB2334B1A70FFF7BCFE41
S31520000F0038217B1824225218D11914226A4431C957
S31520000F1031C231C931C231C931C26A4611001A0003
S31520000F20103231CA31C111CA11C1186859689A687C
S31520000F30DB68FFF703FF3B00DB68002B22DC234B3B
S31520000F401B780133DAB2214B1A70FFF795FE382150
S31520000F507B1824225218D11914226A4431C931C26D
S31520000F6031C931C231C931C26A4611001A00103264
S31520000F7031CA31C111CA11C1186859689A68DB682B
S31520000F80FFF7DCFE104B1A78114B1B789A4205D1DD
S31520000F90104B114A1A60FFF736FE0BE00B4B1A78FE
S31520000FA00B4B1B789A4200D0E4E60A4B0B4A1A6098
S31520000FB0FFF729FEC046BD460AB0B0BC08BC04B047
S31520000FC01847C046C8130020B8120020B9120020C6
S31520000FD064130020BC120020B0130020BC13002094
S31520000FE0B0B5AAB00EAFFFF78BFE6F23FB18FF221A
S31520000FF01A7048243B19012201211800FFF773FAC1
S315200010002200BB181B6AB818012204219847242401
S315200010103B19202264211800FFF79EFA3B0020226C
S315200010201C211800FFF798FA3C193A0014236B4448
S3152000103023CA23C323CA23C323CA23C36B461A0046
S315200010402300103323CB23C203CB03C2206861685D
S31520001050A268E368FFF772FEC046BD461CB0B0BD6D
S3152000106080B582B000AF78607B68002B02DA7B689F
S315200010705B4200E07B681800BD4602B080BDF0DF11
S315200010807047C046F1DF7047C046F2DF7047C04662
S31520001090F3DF7047C046000080B500AF074B002243
S315200010A01A60074BA8221A60064B00221A60064BCC
S315200010B007221A60C046BD4680BDC046C012002029
S315200010C014E000E018E000E010E000E080B582B017
S315200010D000AF7860044B7A681A60FFF7DDFFC046E0
S315200010E0BD4602B080BDC046C412002080B500AF08
S315200010F00A4B00221A600A4B1B685A1E084B1A60BC
S31520001100074B1B68002B02DDFFF7C6FF02E0054BED
S3152000111001221A60C046BD4680BDC04610E000E0F0
S31520001120C4120020C012002080B582B000AF1B4B35
S315200011301A691A4B01218A431A61194B1B7801330C
S31520001140DAB2174B1A70164B1B78092B11D9144B90
S3152000115000221A70134B1B780133DAB2114B1A7026
S31520001160104B7B600F4B1B78022201211800FFF7E2
S315200011709EF80C4B1B781A000B4B1B689A4208DD15
S315200011800A4B01221A70054B1A68044B01218A4327
S315200011901A60C046BD4602B080BDC0460010004061
S315200011A0D0120020D1120020CC120020C81200201C
S315200011B080B500AF024B1B781800BD4680BDC046E7
S315200011C0C812002080B500AF154B00221A70154BAF
S315200011D000221A70144B1A68134B01218A431A6095
S315200011E0124B134A1A60134B1A68124B8021C903FB
S315200011F00A431A600C4B53229A620B4B0E4ADA6250
S31520001200094BDA68084B01210A43DA60064B1A6853
S31520001210054B01210A431A60C046BD4680BDC04623
S31520001220D0120020D11200200010004018C1012049
S315200012302911002004E100E00F27000080B582B0CC
S3152000124000AF7860104B1A680F4B1A6079680B0054
S31520001250DB005B1A1A01D21AD200521A0B4B9A6281
S315200012600A4B0B4ADA62094BDA68084B01210A431A
S31520001270DA60064B1A68054B01210A431A60C046FC
S31520001280BD4602B080BDC046CC12002000100040F2
S315200012900F27000080B500AF044B054A1A60054BA6
S315200012A000221A60C046BD4680BDC0463CC0012013
S315200012B0ED100020C01200200000000000000000F9
S315200012C000000000000000000000000000000000F8
S315200012D0000000000C0000000400000004000000D4
S315200012E000010002010101020103020002010202C3
S315200012F002030301030200000000000000000000BA
S3152000130000000000000000000000000000000000B7
S315200013100000000000000000000000001B0000008C
S315200013200500000009000000000001000200030083
S315200013300400000100020003000400050006000767
S315200013400008010802080308040804070406040527
S31520001350040404030402040102030204020500003B
S3152000136000000000050000000102030A0405060B28
S315200013700708090C0E000F0D3F065B4F666D7D07B3
S315200013807F6F777C395E7E2154686520657069633E
S315200013902077696E6E65722069733A20000000001E
S315200013A050313A200000000050323A200000000060
S315200013B0506C61796572203100000000506C6179B3
S315200013C06572203200000000640E0020C60D002049
S315200013D0640E0020F40D0020640E0020640E002010
S315200013E01A0E0020DE0D0020640E0020080E0020BC
S70520000000DA
